{
  "contractName": "SubjectSelector",
  "abi": [
    {
      "anonymous": false,
      "inputs": [
        {
          "indexed": false,
          "internalType": "string",
          "name": "contextId",
          "type": "string"
        },
        {
          "indexed": false,
          "internalType": "string",
          "name": "title",
          "type": "string"
        },
        {
          "indexed": false,
          "internalType": "address",
          "name": "creatorId",
          "type": "address"
        },
        {
          "indexed": false,
          "internalType": "string[]",
          "name": "subjects",
          "type": "string[]"
        }
      ],
      "name": "ContextCreated",
      "type": "event"
    },
    {
      "anonymous": false,
      "inputs": [
        {
          "indexed": false,
          "internalType": "string",
          "name": "contextId",
          "type": "string"
        },
        {
          "indexed": true,
          "internalType": "address",
          "name": "user",
          "type": "address"
        },
        {
          "indexed": false,
          "internalType": "string",
          "name": "subject",
          "type": "string"
        }
      ],
      "name": "SubjectMade",
      "type": "event"
    },
    {
      "inputs": [
        {
          "internalType": "string",
          "name": "_title",
          "type": "string"
        },
        {
          "internalType": "string[]",
          "name": "_subjects",
          "type": "string[]"
        }
      ],
      "name": "createContext",
      "outputs": [],
      "stateMutability": "nonpayable",
      "type": "function"
    },
    {
      "inputs": [
        {
          "internalType": "string",
          "name": "_contextId",
          "type": "string"
        },
        {
          "internalType": "string",
          "name": "_subject",
          "type": "string"
        }
      ],
      "name": "selectSubject",
      "outputs": [],
      "stateMutability": "nonpayable",
      "type": "function"
    },
    {
      "inputs": [
        {
          "internalType": "string",
          "name": "_contextId",
          "type": "string"
        }
      ],
      "name": "getContextResults",
      "outputs": [
        {
          "internalType": "address[]",
          "name": "users",
          "type": "address[]"
        },
        {
          "internalType": "string[]",
          "name": "selectedSubjects",
          "type": "string[]"
        }
      ],
      "stateMutability": "view",
      "type": "function",
      "constant": true
    },
    {
      "inputs": [
        {
          "internalType": "string",
          "name": "_contextId",
          "type": "string"
        }
      ],
      "name": "getSubjects",
      "outputs": [
        {
          "internalType": "string[]",
          "name": "",
          "type": "string[]"
        }
      ],
      "stateMutability": "view",
      "type": "function",
      "constant": true
    },
    {
      "inputs": [],
      "name": "getContextsByCreator",
      "outputs": [
        {
          "internalType": "string[]",
          "name": "",
          "type": "string[]"
        },
        {
          "internalType": "string[]",
          "name": "",
          "type": "string[]"
        }
      ],
      "stateMutability": "view",
      "type": "function",
      "constant": true
    },
    {
      "inputs": [],
      "name": "getContextsByUser",
      "outputs": [
        {
          "internalType": "string[]",
          "name": "",
          "type": "string[]"
        },
        {
          "internalType": "string[]",
          "name": "",
          "type": "string[]"
        }
      ],
      "stateMutability": "view",
      "type": "function",
      "constant": true
    },
    {
      "inputs": [
        {
          "internalType": "string",
          "name": "_contextId",
          "type": "string"
        },
        {
          "internalType": "address",
          "name": "_user",
          "type": "address"
        }
      ],
      "name": "getUserSubject",
      "outputs": [
        {
          "internalType": "string",
          "name": "",
          "type": "string"
        }
      ],
      "stateMutability": "view",
      "type": "function",
      "constant": true
    },
    {
      "inputs": [
        {
          "internalType": "string",
          "name": "contextId",
          "type": "string"
        }
      ],
      "name": "getContextById",
      "outputs": [
        {
          "internalType": "string",
          "name": "returnedContextId",
          "type": "string"
        },
        {
          "internalType": "string",
          "name": "title",
          "type": "string"
        },
        {
          "internalType": "address",
          "name": "creatorId",
          "type": "address"
        },
        {
          "internalType": "string[]",
          "name": "subjects",
          "type": "string[]"
        },
        {
          "internalType": "bool",
          "name": "active",
          "type": "bool"
        }
      ],
      "stateMutability": "view",
      "type": "function",
      "constant": true
    }
  ],
  "bytecode": "0x608060405234801561001057600080fd5b50612a18806100206000396000f3fe608060405234801561001057600080fd5b50600436106100885760003560e01c8063a980e4bc1161005b578063a980e4bc14610128578063ae80c2bc14610144578063ce3448e814610175578063f3c5cdc41461019457610088565b806318e1d7a81461008d57806319c377bc146100ac5780635c05092f146100c857806374caa3a6146100f8575b600080fd5b6100956101c8565b6040516100a39291906123da565b60405180910390f35b6100c660048036038101906100c19190611eae565b61069f565b005b6100e260048036038101906100dd9190611dad565b6109f5565b6040516100ef91906123b8565b60405180910390f35b610112600480360381019061010d9190611dee565b610b24565b60405161011f9190612411565b60405180910390f35b610142600480360381019061013d9190611e42565b610c4a565b005b61015e60048036038101906101599190611dad565b610ea9565b60405161016c929190612381565b60405180910390f35b61017d611173565b60405161018b9291906123da565b60405180910390f35b6101ae60048036038101906101a99190611dad565b611644565b6040516101bf9594939291906124c4565b60405180910390f35b6060806000805b60008054905081101561029d573373ffffffffffffffffffffffffffffffffffffffff166000828154811061022d577f4e487b7100000000000000000000000000000000000000000000000000000000600052603260045260246000fd5b906000526020600020906008020160070160019054906101000a900473ffffffffffffffffffffffffffffffffffffffff1673ffffffffffffffffffffffffffffffffffffffff16141561028a57818061028690612825565b9250505b808061029590612825565b9150506101cf565b5060008167ffffffffffffffff8111156102e0577f4e487b7100000000000000000000000000000000000000000000000000000000600052604160045260246000fd5b60405190808252806020026020018201604052801561031357816020015b60608152602001906001900390816102fe5790505b50905060008267ffffffffffffffff811115610358577f4e487b7100000000000000000000000000000000000000000000000000000000600052604160045260246000fd5b60405190808252806020026020018201604052801561038b57816020015b60608152602001906001900390816103765790505b5090506000805b600080549050811015610690573373ffffffffffffffffffffffffffffffffffffffff16600082815481106103f0577f4e487b7100000000000000000000000000000000000000000000000000000000600052603260045260246000fd5b906000526020600020906008020160070160019054906101000a900473ffffffffffffffffffffffffffffffffffffffff1673ffffffffffffffffffffffffffffffffffffffff16141561067d5760008181548110610478577f4e487b7100000000000000000000000000000000000000000000000000000000600052603260045260246000fd5b90600052602060002090600802016000018054610494906127f3565b80601f01602080910402602001604051908101604052809291908181526020018280546104c0906127f3565b801561050d5780601f106104e25761010080835404028352916020019161050d565b820191906000526020600020905b8154815290600101906020018083116104f057829003601f168201915b505050505084838151811061054b577f4e487b7100000000000000000000000000000000000000000000000000000000600052603260045260246000fd5b602002602001018190525060008181548110610590577f4e487b7100000000000000000000000000000000000000000000000000000000600052603260045260246000fd5b906000526020600020906008020160010180546105ac906127f3565b80601f01602080910402602001604051908101604052809291908181526020018280546105d8906127f3565b80156106255780601f106105fa57610100808354040283529160200191610625565b820191906000526020600020905b81548152906001019060200180831161060857829003601f168201915b5050505050838381518110610663577f4e487b7100000000000000000000000000000000000000000000000000000000600052603260045260246000fd5b6020026020010181905250818061067990612825565b9250505b808061068890612825565b915050610392565b50828295509550505050509091565b6000806106ab846118e0565b91509150806106ef576040517f08c379a00000000000000000000000000000000000000000000000000000000081526004016106e69061256c565b60405180910390fd5b8160070160009054906101000a900460ff16610740576040517f08c379a0000000000000000000000000000000000000000000000000000000008152600401610737906125ac565b60405180910390fd5b81600401836040516107529190612316565b908152602001604051809103902060009054906101000a900460ff166107ad576040517f08c379a00000000000000000000000000000000000000000000000000000000081526004016107a4906125cc565b60405180910390fd5b60008260050160003373ffffffffffffffffffffffffffffffffffffffff1673ffffffffffffffffffffffffffffffffffffffff16815260200190815260200160002080546107fb906127f3565b90501461083d576040517f08c379a00000000000000000000000000000000000000000000000000000000081526004016108349061254c565b60405180910390fd5b816006018360405161084f9190612316565b908152602001604051809103902060009054906101000a900460ff16156108ab576040517f08c379a00000000000000000000000000000000000000000000000000000000081526004016108a29061258c565b60405180910390fd5b828260050160003373ffffffffffffffffffffffffffffffffffffffff1673ffffffffffffffffffffffffffffffffffffffff1681526020019081526020016000209080519060200190610900929190611c06565b50600182600601846040516109159190612316565b908152602001604051809103902060006101000a81548160ff02191690831515021790555081600301339080600181540180825580915050600190039060005260206000200160009091909190916101000a81548173ffffffffffffffffffffffffffffffffffffffff021916908373ffffffffffffffffffffffffffffffffffffffff1602179055503373ffffffffffffffffffffffffffffffffffffffff167f5ceeed2fe34997d0bdc78b4c0b983ca2e965b19588b25ccc0629b05051566b0685856040516109e7929190612433565b60405180910390a250505050565b6060600080610a03846118e0565b9150915080610a47576040517f08c379a0000000000000000000000000000000000000000000000000000000008152600401610a3e9061256c565b60405180910390fd5b81600201805480602002602001604051908101604052809291908181526020016000905b82821015610b17578382906000526020600020018054610a8a906127f3565b80601f0160208091040260200160405190810160405280929190818152602001828054610ab6906127f3565b8015610b035780601f10610ad857610100808354040283529160200191610b03565b820191906000526020600020905b815481529060010190602001808311610ae657829003601f168201915b505050505081526020019060010190610a6b565b5050505092505050919050565b6060600080610b32856118e0565b9150915080610b76576040517f08c379a0000000000000000000000000000000000000000000000000000000008152600401610b6d9061256c565b60405180910390fd5b8160050160008573ffffffffffffffffffffffffffffffffffffffff1673ffffffffffffffffffffffffffffffffffffffff1681526020019081526020016000208054610bc2906127f3565b80601f0160208091040260200160405190810160405280929190818152602001828054610bee906127f3565b8015610c3b5780601f10610c1057610100808354040283529160200191610c3b565b820191906000526020600020905b815481529060010190602001808311610c1e57829003601f168201915b50505050509250505092915050565b6000815111610c8e576040517f08c379a0000000000000000000000000000000000000000000000000000000008152600401610c859061252c565b60405180910390fd5b6000610c98611a4d565b9050600080600181600181540180825580915050039060005260206000209060080201905081816000019080519060200190610cd5929190611c06565b5083816001019080519060200190610cee929190611c06565b5060018160070160006101000a81548160ff021916908315150217905550338160070160016101000a81548173ffffffffffffffffffffffffffffffffffffffff021916908373ffffffffffffffffffffffffffffffffffffffff16021790555060005b8351811015610e655781600201848281518110610d98577f4e487b7100000000000000000000000000000000000000000000000000000000600052603260045260246000fd5b6020026020010151908060018154018082558091505060019003906000526020600020016000909190919091509080519060200190610dd8929190611c06565b50600182600401858381518110610e18577f4e487b7100000000000000000000000000000000000000000000000000000000600052603260045260246000fd5b6020026020010151604051610e2d9190612316565b908152602001604051809103902060006101000a81548160ff0219169083151502179055508080610e5d90612825565b915050610d52565b507f099de8978f06c5f6c38ad09d2a943fbd48ca1e5ae4fa67b1a3b9c7f2f386cb5f82853386604051610e9b949392919061246a565b60405180910390a150505050565b606080600080610eb8856118e0565b9150915080610efc576040517f08c379a0000000000000000000000000000000000000000000000000000000008152600401610ef39061256c565b60405180910390fd5b81600301805480602002602001604051908101604052809291908181526020018280548015610f8057602002820191906000526020600020905b8160009054906101000a900473ffffffffffffffffffffffffffffffffffffffff1673ffffffffffffffffffffffffffffffffffffffff1681526020019060010190808311610f36575b50505050509350835167ffffffffffffffff811115610fc8577f4e487b7100000000000000000000000000000000000000000000000000000000600052604160045260246000fd5b604051908082528060200260200182016040528015610ffb57816020015b6060815260200190600190039081610fe65790505b50925060005b845181101561116b57826005016000868381518110611049577f4e487b7100000000000000000000000000000000000000000000000000000000600052603260045260246000fd5b602002602001015173ffffffffffffffffffffffffffffffffffffffff1673ffffffffffffffffffffffffffffffffffffffff1681526020019081526020016000208054611096906127f3565b80601f01602080910402602001604051908101604052809291908181526020018280546110c2906127f3565b801561110f5780601f106110e45761010080835404028352916020019161110f565b820191906000526020600020905b8154815290600101906020018083116110f257829003601f168201915b505050505084828151811061114d577f4e487b7100000000000000000000000000000000000000000000000000000000600052603260045260246000fd5b6020026020010181905250808061116390612825565b915050611001565b505050915091565b6060806000805b6000805490508110156112455760008082815481106111c2577f4e487b7100000000000000000000000000000000000000000000000000000000600052603260045260246000fd5b906000526020600020906008020160050160003373ffffffffffffffffffffffffffffffffffffffff1673ffffffffffffffffffffffffffffffffffffffff168152602001908152602001600020805461121b906127f3565b9050111561123257818061122e90612825565b9250505b808061123d90612825565b91505061117a565b5060008167ffffffffffffffff811115611288577f4e487b7100000000000000000000000000000000000000000000000000000000600052604160045260246000fd5b6040519080825280602002602001820160405280156112bb57816020015b60608152602001906001900390816112a65790505b50905060008267ffffffffffffffff811115611300577f4e487b7100000000000000000000000000000000000000000000000000000000600052604160045260246000fd5b60405190808252806020026020018201604052801561133357816020015b606081526020019060019003908161131e5790505b5090506000805b600080549050811015611635576000808281548110611382577f4e487b7100000000000000000000000000000000000000000000000000000000600052603260045260246000fd5b906000526020600020906008020160050160003373ffffffffffffffffffffffffffffffffffffffff1673ffffffffffffffffffffffffffffffffffffffff16815260200190815260200160002080546113db906127f3565b90501115611622576000818154811061141d577f4e487b7100000000000000000000000000000000000000000000000000000000600052603260045260246000fd5b90600052602060002090600802016000018054611439906127f3565b80601f0160208091040260200160405190810160405280929190818152602001828054611465906127f3565b80156114b25780601f10611487576101008083540402835291602001916114b2565b820191906000526020600020905b81548152906001019060200180831161149557829003601f168201915b50505050508483815181106114f0577f4e487b7100000000000000000000000000000000000000000000000000000000600052603260045260246000fd5b602002602001018190525060008181548110611535577f4e487b7100000000000000000000000000000000000000000000000000000000600052603260045260246000fd5b90600052602060002090600802016001018054611551906127f3565b80601f016020809104026020016040519081016040528092919081815260200182805461157d906127f3565b80156115ca5780601f1061159f576101008083540402835291602001916115ca565b820191906000526020600020905b8154815290600101906020018083116115ad57829003601f168201915b5050505050838381518110611608577f4e487b7100000000000000000000000000000000000000000000000000000000600052603260045260246000fd5b6020026020010181905250818061161e90612825565b9250505b808061162d90612825565b91505061133a565b50828295509550505050509091565b606080600060606000806000611659886118e0565b915091508061169d576040517f08c379a00000000000000000000000000000000000000000000000000000000081526004016116949061256c565b60405180910390fd5b81600001826001018360070160019054906101000a900473ffffffffffffffffffffffffffffffffffffffff16846002018560070160009054906101000a900460ff168480546116ec906127f3565b80601f0160208091040260200160405190810160405280929190818152602001828054611718906127f3565b80156117655780601f1061173a57610100808354040283529160200191611765565b820191906000526020600020905b81548152906001019060200180831161174857829003601f168201915b50505050509450838054611778906127f3565b80601f01602080910402602001604051908101604052809291908181526020018280546117a4906127f3565b80156117f15780601f106117c6576101008083540402835291602001916117f1565b820191906000526020600020905b8154815290600101906020018083116117d457829003601f168201915b5050505050935081805480602002602001604051908101604052809291908181526020016000905b828210156118c5578382906000526020600020018054611838906127f3565b80601f0160208091040260200160405190810160405280929190818152602001828054611864906127f3565b80156118b15780601f10611886576101008083540402835291602001916118b1565b820191906000526020600020905b81548152906001019060200180831161189457829003601f168201915b505050505081526020019060010190611819565b50505050915096509650965096509650505091939590929450565b60008060005b6000805490508110156119f857836040516020016119049190612316565b6040516020818303038152906040528051906020012060008281548110611954577f4e487b7100000000000000000000000000000000000000000000000000000000600052603260045260246000fd5b9060005260206000209060080201600001604051602001611975919061232d565b6040516020818303038152906040528051906020012014156119e557600081815481106119cb577f4e487b7100000000000000000000000000000000000000000000000000000000600052603260045260246000fd5b906000526020600020906008020160019250925050611a48565b80806119f090612825565b9150506118e6565b5060008081548110611a33577f4e487b7100000000000000000000000000000000000000000000000000000000600052603260045260246000fd5b90600052602060002090600802016000915091505b915091565b606060006040518060600160405280602481526020016129bf6024913990506000600a67ffffffffffffffff811115611aaf577f4e487b7100000000000000000000000000000000000000000000000000000000600052604160045260246000fd5b6040519080825280601f01601f191660200182016040528015611ae15781602001600182028036833780820191505090505b5090506000424433604051602001611afb93929190612344565b6040516020818303038152906040528051906020012060001c905060005b600a811015611bfc5783845183611b30919061289c565b81518110611b67577f4e487b7100000000000000000000000000000000000000000000000000000000600052603260045260246000fd5b602001015160f81c60f81b838281518110611bab577f4e487b7100000000000000000000000000000000000000000000000000000000600052603260045260246000fd5b60200101907effffffffffffffffffffffffffffffffffffffffffffffffffffffffffffff1916908160001a905350835182611be79190612738565b91508080611bf490612825565b915050611b19565b5081935050505090565b828054611c12906127f3565b90600052602060002090601f016020900481019282611c345760008555611c7b565b82601f10611c4d57805160ff1916838001178555611c7b565b82800160010185558215611c7b579182015b82811115611c7a578251825591602001919060010190611c5f565b5b509050611c889190611c8c565b5090565b5b80821115611ca5576000816000905550600101611c8d565b5090565b6000611cbc611cb78461261d565b6125ec565b9050808382526020820190508260005b85811015611cfc5781358501611ce28882611d83565b845260208401935060208301925050600181019050611ccc565b5050509392505050565b6000611d19611d1484612649565b6125ec565b905082815260208101848484011115611d3157600080fd5b611d3c8482856127b1565b509392505050565b600081359050611d53816129a7565b92915050565b600082601f830112611d6a57600080fd5b8135611d7a848260208601611ca9565b91505092915050565b600082601f830112611d9457600080fd5b8135611da4848260208601611d06565b91505092915050565b600060208284031215611dbf57600080fd5b600082013567ffffffffffffffff811115611dd957600080fd5b611de584828501611d83565b91505092915050565b60008060408385031215611e0157600080fd5b600083013567ffffffffffffffff811115611e1b57600080fd5b611e2785828601611d83565b9250506020611e3885828601611d44565b9150509250929050565b60008060408385031215611e5557600080fd5b600083013567ffffffffffffffff811115611e6f57600080fd5b611e7b85828601611d83565b925050602083013567ffffffffffffffff811115611e9857600080fd5b611ea485828601611d59565b9150509250929050565b60008060408385031215611ec157600080fd5b600083013567ffffffffffffffff811115611edb57600080fd5b611ee785828601611d83565b925050602083013567ffffffffffffffff811115611f0457600080fd5b611f1085828601611d83565b9150509250929050565b6000611f268383611f46565b60208301905092915050565b6000611f3e838361205d565b905092915050565b611f4f81612769565b82525050565b611f5e81612769565b82525050565b611f75611f7082612769565b61286e565b82525050565b6000611f86826126ae565b611f9081856126e9565b9350611f9b83612679565b8060005b83811015611fcc578151611fb38882611f1a565b9750611fbe836126cf565b925050600181019050611f9f565b5085935050505092915050565b6000611fe4826126b9565b611fee81856126fa565b93508360208202850161200085612689565b8060005b8581101561203c578484038952815161201d8582611f32565b9450612028836126dc565b925060208a01995050600181019050612004565b50829750879550505050505092915050565b6120578161277b565b82525050565b6000612068826126c4565b612072818561270b565b93506120828185602086016127c0565b61208b81612989565b840191505092915050565b60006120a1826126c4565b6120ab818561271c565b93506120bb8185602086016127c0565b6120c481612989565b840191505092915050565b60006120da826126c4565b6120e4818561272d565b93506120f48185602086016127c0565b80840191505092915050565b6000815461210d816127f3565b612117818661272d565b94506001821660008114612132576001811461214357612176565b60ff19831686528186019350612176565b61214c85612699565b60005b8381101561216e5781548189015260018201915060208101905061214f565b838801955050505b50505092915050565b600061218c601d8361271c565b91507f4174206c65617374206f6e65207375626a6563742072657175697265640000006000830152602082019050919050565b60006121cc600d8361271c565b91507f616c72656164795f766f746564000000000000000000000000000000000000006000830152602082019050919050565b600061220c60118361271c565b91507f636f6e746578745f6e6f745f666f756e640000000000000000000000000000006000830152602082019050919050565b600061224c60158361271c565b91507f7375626a6563745f616c72656164795f74616b656e00000000000000000000006000830152602082019050919050565b600061228c60128361271c565b91507f636f6e746578745f6e6f745f61637469766500000000000000000000000000006000830152602082019050919050565b60006122cc600f8361271c565b91507f696e76616c69645f7375626a65637400000000000000000000000000000000006000830152602082019050919050565b61231061230b826127a7565b612892565b82525050565b600061232282846120cf565b915081905092915050565b60006123398284612100565b915081905092915050565b600061235082866122ff565b60208201915061236082856122ff565b6020820191506123708284611f64565b601482019150819050949350505050565b6000604082019050818103600083015261239b8185611f7b565b905081810360208301526123af8184611fd9565b90509392505050565b600060208201905081810360008301526123d28184611fd9565b905092915050565b600060408201905081810360008301526123f48185611fd9565b905081810360208301526124088184611fd9565b90509392505050565b6000602082019050818103600083015261242b8184612096565b905092915050565b6000604082019050818103600083015261244d8185612096565b905081810360208301526124618184612096565b90509392505050565b600060808201905081810360008301526124848187612096565b905081810360208301526124988186612096565b90506124a76040830185611f55565b81810360608301526124b98184611fd9565b905095945050505050565b600060a08201905081810360008301526124de8188612096565b905081810360208301526124f28187612096565b90506125016040830186611f55565b81810360608301526125138185611fd9565b9050612522608083018461204e565b9695505050505050565b600060208201905081810360008301526125458161217f565b9050919050565b60006020820190508181036000830152612565816121bf565b9050919050565b60006020820190508181036000830152612585816121ff565b9050919050565b600060208201905081810360008301526125a58161223f565b9050919050565b600060208201905081810360008301526125c58161227f565b9050919050565b600060208201905081810360008301526125e5816122bf565b9050919050565b6000604051905081810181811067ffffffffffffffff821117156126135761261261295a565b5b8060405250919050565b600067ffffffffffffffff8211156126385761263761295a565b5b602082029050602081019050919050565b600067ffffffffffffffff8211156126645761266361295a565b5b601f19601f8301169050602081019050919050565b6000819050602082019050919050565b6000819050602082019050919050565b60008190508160005260206000209050919050565b600081519050919050565b600081519050919050565b600081519050919050565b6000602082019050919050565b6000602082019050919050565b600082825260208201905092915050565b600082825260208201905092915050565b600082825260208201905092915050565b600082825260208201905092915050565b600081905092915050565b6000612743826127a7565b915061274e836127a7565b92508261275e5761275d6128fc565b5b828204905092915050565b600061277482612787565b9050919050565b60008115159050919050565b600073ffffffffffffffffffffffffffffffffffffffff82169050919050565b6000819050919050565b82818337600083830152505050565b60005b838110156127de5780820151818401526020810190506127c3565b838111156127ed576000848401525b50505050565b6000600282049050600182168061280b57607f821691505b6020821081141561281f5761281e61292b565b5b50919050565b6000612830826127a7565b91507fffffffffffffffffffffffffffffffffffffffffffffffffffffffffffffffff821415612863576128626128cd565b5b600182019050919050565b600061287982612880565b9050919050565b600061288b8261299a565b9050919050565b6000819050919050565b60006128a7826127a7565b91506128b2836127a7565b9250826128c2576128c16128fc565b5b828206905092915050565b7f4e487b7100000000000000000000000000000000000000000000000000000000600052601160045260246000fd5b7f4e487b7100000000000000000000000000000000000000000000000000000000600052601260045260246000fd5b7f4e487b7100000000000000000000000000000000000000000000000000000000600052602260045260246000fd5b7f4e487b7100000000000000000000000000000000000000000000000000000000600052604160045260246000fd5b6000601f19601f8301169050919050565b60008160601b9050919050565b6129b081612769565b81146129bb57600080fd5b5056fe6162636465666768696a6b6c6d6e6f707172737475767778797a30313233343536373839a26469706673582212207615047a00d16b65646f713a19f4a54e7ab0c5a7b4f65dfd09c23f4cf415f74264736f6c63430008000033",
  "immutableReferences": {},
  "source": "// SPDX-License-Identifier: MIT\r\npragma solidity ^0.8.0;\r\n\r\ncontract SubjectSelector {\r\n    // Structure pour un contexte (anciennement context)\r\n    struct Context {\r\n        string contextId;\r\n        string title;\r\n        string[] subjects; // Liste des sujets (anciennement choix)\r\n        address[] userList; // Liste des utilisateurs ayant choisi un sujet\r\n        mapping(string => bool) subjectExists; // Vrification de l'existence d'un sujet\r\n        mapping(address => string) userSubjects; // Choix de l'utilisateur\r\n        mapping(string => bool) subjectTaken; // Vrification si un sujet a dj t choisi\r\n        bool active; // Indicateur pour savoir si le contexte est actif\r\n        address creatorId; // Adresse du crateur du contexte\r\n    }\r\n\r\n    Context[] private contexts; // Liste des contextes\r\n\r\n    // vnement pour la cration d'un contexte\r\n    event ContextCreated(string contextId, string title, address creatorId, string[] subjects);\r\n    // vnement lorsque qu'un utilisateur fait un choix\r\n    event SubjectMade(string contextId, address indexed user, string subject);\r\n\r\n    // Fonction pour crer un contexte\r\n    function createContext(\r\n        string memory _title,\r\n        string[] memory _subjects\r\n    ) public {\r\n        require(_subjects.length > 0, \"At least one subject required\");\r\n\r\n        string memory contextId = _generateRandomId();\r\n        Context storage newContext = contexts.push();\r\n        newContext.contextId = contextId;\r\n        newContext.title = _title;\r\n        newContext.active = true;\r\n        newContext.creatorId = msg.sender;\r\n\r\n        for (uint i = 0; i < _subjects.length; i++) {\r\n            newContext.subjects.push(_subjects[i]);\r\n            newContext.subjectExists[_subjects[i]] = true;\r\n        }\r\n\r\n        emit ContextCreated(contextId, _title, msg.sender, _subjects);\r\n    }\r\n\r\n    // Fonction pour que l'utilisateur slectionne un sujet\r\n    function selectSubject(string memory _contextId, string memory _subject) public {\r\n        (Context storage context, bool found) = _findContextById(_contextId);\r\n\r\n        require(found, \"context_not_found\");\r\n        require(context.active, \"context_not_active\");\r\n        require(context.subjectExists[_subject], \"invalid_subject\");\r\n        require(bytes(context.userSubjects[msg.sender]).length == 0, \"already_contextd\");\r\n        require(!context.subjectTaken[_subject], \"subject_already_taken\");\r\n\r\n        context.userSubjects[msg.sender] = _subject;\r\n        context.subjectTaken[_subject] = true;\r\n        context.userList.push(msg.sender); // Ajouter l'utilisateur  la liste des utilisateurs\r\n\r\n        emit SubjectMade(_contextId, msg.sender, _subject);\r\n    }\r\n\r\n    // Nouvelle fonction pour obtenir les rsultats d'un contexte\r\n    function getContextResults(string memory _contextId) public view returns (\r\n        address[] memory users,\r\n        string[] memory selectedSubjects\r\n    ) {\r\n        (Context storage context, bool found) = _findContextById(_contextId);\r\n        require(found, \"context_not_found\");\r\n\r\n        // Obtenir tous les utilisateurs et leurs sujets\r\n        users = context.userList;\r\n        selectedSubjects = new string[](users.length);\r\n\r\n        // Obtenir le sujet slectionn par chaque utilisateur\r\n        for (uint256 i = 0; i < users.length; i++) {\r\n            selectedSubjects[i] = context.userSubjects[users[i]];\r\n        }\r\n\r\n        return (users, selectedSubjects);\r\n    }\r\n\r\n    // Fonction pour obtenir la liste des sujets d'un contexte\r\n    function getSubjects(string memory _contextId) public view returns (string[] memory) {\r\n        (Context storage context, bool found) = _findContextById(_contextId);\r\n        require(found, \"context_not_found\");\r\n        return context.subjects;\r\n    }\r\n\r\n    // Nouvelle mthode pour retourner tous les contextes crs par l'expditeur\r\n    function getContextsByCreator() public view returns\r\n        (string[] memory, string[] memory) {\r\n            uint256 count = 0;\r\n\r\n            // Compter les contextes crs par l'expditeur\r\n            for (uint256 i = 0; i < contexts.length; i++) {\r\n                if (contexts[i].creatorId == msg.sender) {\r\n                    count++;\r\n                }\r\n            }\r\n\r\n            // Crer des tableaux pour stocker les IDs et titres des contextes\r\n            string[] memory ids = new string[](count);\r\n            string[] memory titles = new string[](count);\r\n\r\n            uint256 index = 0;\r\n\r\n            // Remplir les tableaux avec les donnes des contextes crs par l'expditeur\r\n            for (uint256 i = 0; i < contexts.length; i++) {\r\n                if (contexts[i].creatorId == msg.sender) {\r\n                    ids[index] = contexts[i].contextId;\r\n                    titles[index] = contexts[i].title;\r\n                    index++;\r\n                }\r\n            }\r\n\r\n            return (ids, titles);\r\n        }\r\n\r\n    // Fonction pour obtenir tous les contextes auxquels un utilisateur a particip\r\n    function getContextsByUser() public view returns (string[] memory, string[] memory) {\r\n        uint256 count = 0;\r\n\r\n        // Compter les contextes auxquels l'utilisateur a particip\r\n        for (uint256 i = 0; i < contexts.length; i++) {\r\n            if (bytes(contexts[i].userSubjects[msg.sender]).length > 0) {\r\n                count++;\r\n            }\r\n        }\r\n\r\n        // Crer des tableaux pour stocker les IDs des contextes et les choix de l'utilisateur\r\n        string[] memory ids = new string[](count);\r\n        string[] memory titles = new string[](count);\r\n\r\n        uint256 index = 0;\r\n\r\n        // Remplir les tableaux avec les donnes des contextes auxquels l'utilisateur a particip\r\n        for (uint256 i = 0; i < contexts.length; i++) {\r\n            if (bytes(contexts[i].userSubjects[msg.sender]).length > 0) {\r\n                ids[index] = contexts[i].contextId;\r\n                titles[index] = contexts[i].title;\r\n                index++;\r\n            }\r\n        }\r\n\r\n        return (ids, titles);\r\n    }\r\n\r\n    // Fonction pour obtenir le choix d'un utilisateur dans un contexte spcifique\r\n    function getUserSubject(string memory _contextId, address _user) public view returns (string memory) {\r\n        (Context storage context, bool found) = _findContextById(_contextId);\r\n        require(found, \"context_not_found\");\r\n        return context.userSubjects[_user];\r\n    }\r\n\r\n    // Fonction pour obtenir un contexte par son ID\r\n    function getContextById(\r\n        string memory contextId\r\n    ) public view returns (\r\n        string memory returnedContextId,\r\n        string memory title,\r\n        address creatorId,\r\n        string[] memory subjects,\r\n        bool active\r\n    ) {\r\n        (Context storage context, bool found) = _findContextById(contextId);\r\n        require(found, \"context_not_found\");\r\n        return (\r\n            context.contextId,\r\n            context.title,\r\n            context.creatorId,\r\n            context.subjects,\r\n            context.active\r\n        );\r\n    }\r\n\r\n    // Fonction interne pour trouver un contexte par son ID\r\n    function _findContextById(string memory contextId) internal view returns (Context storage, bool) {\r\n        for (uint i = 0; i < contexts.length; i++) {\r\n            if (keccak256(abi.encodePacked(contexts[i].contextId)) == keccak256(abi.encodePacked(contextId))) {\r\n                return (contexts[i], true);\r\n            }\r\n        }\r\n        return (contexts[0], false); // Retourner un contexte invalide si non trouv\r\n    }\r\n\r\n    // Fonction interne pour gnrer un ID alatoire\r\n    function _generateRandomId() internal view returns (string memory) {\r\n        bytes memory charset = \"abcdefghijklmnopqrstuvwxyz0123456789\";\r\n        bytes memory randomId = new bytes(10);\r\n        uint256 random = uint256(keccak256(abi.encodePacked(block.timestamp, block.difficulty, msg.sender)));\r\n\r\n        for (uint i = 0; i < 10; i++) {\r\n            randomId[i] = charset[random % charset.length];\r\n            random /= charset.length;\r\n        }\r\n        return string(randomId);\r\n    }\r\n}\r\n",
  "sourcePath": "C:\\Users\\kmail\\OneDrive\\Bureau\\Work_Directory\\WebProject\\Blockchain\\public\\truffle\\contracts\\choice_selector.sol",
  "compiler": {
    "name": "solc",
    "version": "0.8.0+commit.c7dfd78e.Emscripten.clang"
  },
  "schemaVersion": "3.4.16",
  "updatedAt": "2024-12-13T18:11:57.866Z",
  "networkType": "ethereum",
  "devdoc": {
    "kind": "dev",
    "methods": {},
    "version": 1
  },
  "userdoc": {
    "kind": "user",
    "methods": {},
    "version": 1
  }
}